{
  "contractName": "UnoTokenSale",
  "abi": [
    {
      "inputs": [
        {
          "internalType": "uint256",
          "name": "_tokenPrice",
          "type": "uint256"
        }
      ],
      "stateMutability": "nonpayable",
      "type": "constructor"
    },
    {
      "anonymous": false,
      "inputs": [
        {
          "indexed": true,
          "internalType": "address",
          "name": "_buyer",
          "type": "address"
        },
        {
          "indexed": false,
          "internalType": "uint256",
          "name": "_value",
          "type": "uint256"
        }
      ],
      "name": "Sell",
      "type": "event"
    },
    {
      "inputs": [],
      "name": "admin",
      "outputs": [
        {
          "internalType": "address",
          "name": "",
          "type": "address"
        }
      ],
      "stateMutability": "view",
      "type": "function"
    },
    {
      "inputs": [],
      "name": "token",
      "outputs": [
        {
          "internalType": "contract UnoToken",
          "name": "",
          "type": "address"
        }
      ],
      "stateMutability": "view",
      "type": "function"
    },
    {
      "inputs": [],
      "name": "tokenPrice",
      "outputs": [
        {
          "internalType": "uint256",
          "name": "",
          "type": "uint256"
        }
      ],
      "stateMutability": "view",
      "type": "function"
    },
    {
      "inputs": [],
      "name": "tokensSold",
      "outputs": [
        {
          "internalType": "uint256",
          "name": "",
          "type": "uint256"
        }
      ],
      "stateMutability": "view",
      "type": "function"
    },
    {
      "inputs": [
        {
          "internalType": "uint256",
          "name": "_value",
          "type": "uint256"
        }
      ],
      "name": "buyToken",
      "outputs": [],
      "stateMutability": "payable",
      "type": "function"
    },
    {
      "inputs": [],
      "name": "endSale",
      "outputs": [],
      "stateMutability": "nonpayable",
      "type": "function"
    }
  ],
  "bytecode": "0x608060405234801561001057600080fd5b50604051610bc2380380610bc2833981810160405281019061003291906100bb565b33600160006101000a81548173ffffffffffffffffffffffffffffffffffffffff021916908373ffffffffffffffffffffffffffffffffffffffff16021790555080600281905550506100e8565b600080fd5b6000819050919050565b61009881610085565b81146100a357600080fd5b50565b6000815190506100b58161008f565b92915050565b6000602082840312156100d1576100d0610080565b5b60006100df848285016100a6565b91505092915050565b610acb806100f76000396000f3fe6080604052600436106100555760003560e01c80632d296bf11461005a578063380d831b14610076578063518ab2a81461008d5780637ff9b596146100b8578063f851a440146100e3578063fc0c546a1461010e575b600080fd5b610074600480360381019061006f9190610664565b610139565b005b34801561008257600080fd5b5061008b610376565b005b34801561009957600080fd5b506100a26105d3565b6040516100af91906106a0565b60405180910390f35b3480156100c457600080fd5b506100cd6105d9565b6040516100da91906106a0565b60405180910390f35b3480156100ef57600080fd5b506100f86105df565b60405161010591906106fc565b60405180910390f35b34801561011a57600080fd5b50610123610605565b6040516101309190610776565b60405180910390f35b6002548161014791906107c0565b341015610189576040517f08c379a000000000000000000000000000000000000000000000000000000000815260040161018090610877565b60405180910390fd5b8060008054906101000a900473ffffffffffffffffffffffffffffffffffffffff1673ffffffffffffffffffffffffffffffffffffffff166370a08231306040518263ffffffff1660e01b81526004016101e391906106fc565b602060405180830381865afa158015610200573d6000803e3d6000fd5b505050506040513d601f19601f8201168201806040525081019061022491906108ac565b1015610265576040517f08c379a000000000000000000000000000000000000000000000000000000000815260040161025c90610925565b60405180910390fd5b60008054906101000a900473ffffffffffffffffffffffffffffffffffffffff1673ffffffffffffffffffffffffffffffffffffffff1663a9059cbb33836040518363ffffffff1660e01b81526004016102c0929190610945565b6020604051808303816000875af11580156102df573d6000803e3d6000fd5b505050506040513d601f19601f8201168201806040525081019061030391906109a6565b61030c57600080fd5b806003600082825461031e91906109d3565b925050819055503373ffffffffffffffffffffffffffffffffffffffff167f5e5e995ce3133561afceaa51a9a154d5db228cd7525d34df5185582c18d3df098260405161036b91906106a0565b60405180910390a250565b600160009054906101000a900473ffffffffffffffffffffffffffffffffffffffff1673ffffffffffffffffffffffffffffffffffffffff163373ffffffffffffffffffffffffffffffffffffffff1614610406576040517f08c379a00000000000000000000000000000000000000000000000000000000081526004016103fd90610a75565b60405180910390fd5b60008054906101000a900473ffffffffffffffffffffffffffffffffffffffff1673ffffffffffffffffffffffffffffffffffffffff1663a9059cbb600160009054906101000a900473ffffffffffffffffffffffffffffffffffffffff1660008054906101000a900473ffffffffffffffffffffffffffffffffffffffff1673ffffffffffffffffffffffffffffffffffffffff166370a08231306040518263ffffffff1660e01b81526004016104be91906106fc565b602060405180830381865afa1580156104db573d6000803e3d6000fd5b505050506040513d601f19601f820116820180604052508101906104ff91906108ac565b6040518363ffffffff1660e01b815260040161051c929190610945565b6020604051808303816000875af115801561053b573d6000803e3d6000fd5b505050506040513d601f19601f8201168201806040525081019061055f91906109a6565b61056857600080fd5b600160009054906101000a900473ffffffffffffffffffffffffffffffffffffffff1673ffffffffffffffffffffffffffffffffffffffff166108fc479081150290604051600060405180830381858888f193505050501580156105d0573d6000803e3d6000fd5b50565b60035481565b60025481565b600160009054906101000a900473ffffffffffffffffffffffffffffffffffffffff1681565b60008054906101000a900473ffffffffffffffffffffffffffffffffffffffff1681565b600080fd5b6000819050919050565b6106418161062e565b811461064c57600080fd5b50565b60008135905061065e81610638565b92915050565b60006020828403121561067a57610679610629565b5b60006106888482850161064f565b91505092915050565b61069a8161062e565b82525050565b60006020820190506106b56000830184610691565b92915050565b600073ffffffffffffffffffffffffffffffffffffffff82169050919050565b60006106e6826106bb565b9050919050565b6106f6816106db565b82525050565b600060208201905061071160008301846106ed565b92915050565b6000819050919050565b600061073c610737610732846106bb565b610717565b6106bb565b9050919050565b600061074e82610721565b9050919050565b600061076082610743565b9050919050565b61077081610755565b82525050565b600060208201905061078b6000830184610767565b92915050565b7f4e487b7100000000000000000000000000000000000000000000000000000000600052601160045260246000fd5b60006107cb8261062e565b91506107d68361062e565b9250817fffffffffffffffffffffffffffffffffffffffffffffffffffffffffffffffff048311821515161561080f5761080e610791565b5b828202905092915050565b600082825260208201905092915050565b7f496e737566666963656e74206574686572000000000000000000000000000000600082015250565b600061086160118361081a565b915061086c8261082b565b602082019050919050565b6000602082019050818103600083015261089081610854565b9050919050565b6000815190506108a681610638565b92915050565b6000602082840312156108c2576108c1610629565b5b60006108d084828501610897565b91505092915050565b7f496e73756666696365696e7420746f6b656e7300000000000000000000000000600082015250565b600061090f60138361081a565b915061091a826108d9565b602082019050919050565b6000602082019050818103600083015261093e81610902565b9050919050565b600060408201905061095a60008301856106ed565b6109676020830184610691565b9392505050565b60008115159050919050565b6109838161096e565b811461098e57600080fd5b50565b6000815190506109a08161097a565b92915050565b6000602082840312156109bc576109bb610629565b5b60006109ca84828501610991565b91505092915050565b60006109de8261062e565b91506109e98361062e565b9250827fffffffffffffffffffffffffffffffffffffffffffffffffffffffffffffffff03821115610a1e57610a1d610791565b5b828201905092915050565b7f4f6e6c792061646d696e2063616e20656e64207468652053616c650000000000600082015250565b6000610a5f601b8361081a565b9150610a6a82610a29565b602082019050919050565b60006020820190508181036000830152610a8e81610a52565b905091905056fea26469706673582212206e87acfb3c2a470543e5940785958d914715f43b48d4a1ec1dd17fbf39ea3f2a64736f6c634300080a0033",
  "immutableReferences": {},
  "source": "pragma solidity <0.9.0;\r\n\r\nimport \"./UnoToken.sol\";\r\n\r\ncontract UnoTokenSale{\r\n\r\n    UnoToken public token;\r\n    address public admin;\r\n    uint256 public tokenPrice;\r\n    uint256 public tokensSold;\r\n\r\n\r\n    event Sell(address indexed _buyer, uint256 _value);\r\n\r\n    constructor(uint256 _tokenPrice){\r\n        admin = msg.sender;\r\n        tokenPrice = _tokenPrice;\r\n    }\r\n    \r\n\r\n    function buyToken(uint256 _value) public payable{\r\n        require(msg.value >=_value*tokenPrice,'Insufficent ether');\r\n        require(token.balanceOf(address(this))>=_value,'Insufficeint tokens');\r\n        require(token.transfer(msg.sender,_value));\r\n        tokensSold += _value;\r\n        emit Sell(msg.sender,_value);\r\n\r\n    }\r\n\r\n    function endSale() public {\r\n        require(msg.sender == admin,'Only admin can end the Sale');\r\n        require(token.transfer(admin, token.balanceOf(address(this))));\r\n        payable(admin).transfer(address(this).balance);\r\n\r\n    }\r\n\r\n\r\n}",
  "sourcePath": "E:\\Projects\\ERC-20 Tokens\\UnoTokenSale\\UnoToken\\contracts\\UnoTokenSale.sol",
  "compiler": {
    "name": "solc",
    "version": "0.8.10+commit.fc410830.Emscripten.clang"
  },
  "schemaVersion": "3.4.3",
  "updatedAt": "2021-12-10T09:58:25.270Z",
  "devdoc": {
    "kind": "dev",
    "methods": {},
    "version": 1
  },
  "userdoc": {
    "kind": "user",
    "methods": {},
    "version": 1
  }
}