{
  "contractName": "UnoToken",
  "abi": [
    {
      "inputs": [
        {
          "internalType": "uint256",
          "name": "_supply",
          "type": "uint256"
        }
      ],
      "stateMutability": "nonpayable",
      "type": "constructor"
    },
    {
      "anonymous": false,
      "inputs": [
        {
          "indexed": true,
          "internalType": "address",
          "name": "_owner",
          "type": "address"
        },
        {
          "indexed": true,
          "internalType": "address",
          "name": "_spender",
          "type": "address"
        },
        {
          "indexed": false,
          "internalType": "uint256",
          "name": "_value",
          "type": "uint256"
        }
      ],
      "name": "Approval",
      "type": "event"
    },
    {
      "anonymous": false,
      "inputs": [
        {
          "indexed": true,
          "internalType": "address",
          "name": "_from",
          "type": "address"
        },
        {
          "indexed": true,
          "internalType": "address",
          "name": "_to",
          "type": "address"
        },
        {
          "indexed": false,
          "internalType": "uint256",
          "name": "_value",
          "type": "uint256"
        }
      ],
      "name": "Transfer",
      "type": "event"
    },
    {
      "inputs": [],
      "name": "admin",
      "outputs": [
        {
          "internalType": "address",
          "name": "",
          "type": "address"
        }
      ],
      "stateMutability": "view",
      "type": "function"
    },
    {
      "inputs": [
        {
          "internalType": "address",
          "name": "",
          "type": "address"
        },
        {
          "internalType": "address",
          "name": "",
          "type": "address"
        }
      ],
      "name": "allowance",
      "outputs": [
        {
          "internalType": "uint256",
          "name": "",
          "type": "uint256"
        }
      ],
      "stateMutability": "view",
      "type": "function"
    },
    {
      "inputs": [
        {
          "internalType": "address",
          "name": "",
          "type": "address"
        }
      ],
      "name": "balanceOf",
      "outputs": [
        {
          "internalType": "uint256",
          "name": "",
          "type": "uint256"
        }
      ],
      "stateMutability": "view",
      "type": "function"
    },
    {
      "inputs": [],
      "name": "name",
      "outputs": [
        {
          "internalType": "string",
          "name": "",
          "type": "string"
        }
      ],
      "stateMutability": "view",
      "type": "function"
    },
    {
      "inputs": [],
      "name": "symbol",
      "outputs": [
        {
          "internalType": "string",
          "name": "",
          "type": "string"
        }
      ],
      "stateMutability": "view",
      "type": "function"
    },
    {
      "inputs": [],
      "name": "totalSupply",
      "outputs": [
        {
          "internalType": "uint256",
          "name": "",
          "type": "uint256"
        }
      ],
      "stateMutability": "view",
      "type": "function"
    },
    {
      "inputs": [
        {
          "internalType": "address",
          "name": "_to",
          "type": "address"
        },
        {
          "internalType": "uint256",
          "name": "_value",
          "type": "uint256"
        }
      ],
      "name": "transfer",
      "outputs": [
        {
          "internalType": "bool",
          "name": "success",
          "type": "bool"
        }
      ],
      "stateMutability": "nonpayable",
      "type": "function"
    },
    {
      "inputs": [
        {
          "internalType": "address",
          "name": "_from",
          "type": "address"
        },
        {
          "internalType": "address",
          "name": "_to",
          "type": "address"
        },
        {
          "internalType": "uint256",
          "name": "_value",
          "type": "uint256"
        }
      ],
      "name": "transferFrom",
      "outputs": [
        {
          "internalType": "bool",
          "name": "success",
          "type": "bool"
        }
      ],
      "stateMutability": "nonpayable",
      "type": "function"
    },
    {
      "inputs": [
        {
          "internalType": "address",
          "name": "_spender",
          "type": "address"
        },
        {
          "internalType": "uint256",
          "name": "_value",
          "type": "uint256"
        }
      ],
      "name": "approve",
      "outputs": [
        {
          "internalType": "bool",
          "name": "success",
          "type": "bool"
        }
      ],
      "stateMutability": "nonpayable",
      "type": "function"
    }
  ],
  "bytecode": "0x60806040526040518060400160405280600881526020017f556e6f546f6b656e000000000000000000000000000000000000000000000000815250600090805190602001906200005192919062000188565b506040518060400160405280600381526020017f554e4f0000000000000000000000000000000000000000000000000000000000815250600190805190602001906200009f92919062000188565b50348015620000ad57600080fd5b50604051620010ab380380620010ab8339818101604052810190620000d3919062000278565b33600360006101000a81548173ffffffffffffffffffffffffffffffffffffffff021916908373ffffffffffffffffffffffffffffffffffffffff1602179055508060046000600360009054906101000a900473ffffffffffffffffffffffffffffffffffffffff1673ffffffffffffffffffffffffffffffffffffffff1673ffffffffffffffffffffffffffffffffffffffff1681526020019081526020016000208190555080600281905550506200030f565b8280546200019690620002d9565b90600052602060002090601f016020900481019282620001ba576000855562000206565b82601f10620001d557805160ff191683800117855562000206565b8280016001018555821562000206579182015b8281111562000205578251825591602001919060010190620001e8565b5b50905062000215919062000219565b5090565b5b80821115620002345760008160009055506001016200021a565b5090565b600080fd5b6000819050919050565b62000252816200023d565b81146200025e57600080fd5b50565b600081519050620002728162000247565b92915050565b60006020828403121562000291576200029062000238565b5b6000620002a18482850162000261565b91505092915050565b7f4e487b7100000000000000000000000000000000000000000000000000000000600052602260045260246000fd5b60006002820490506001821680620002f257607f821691505b60208210811415620003095762000308620002aa565b5b50919050565b610d8c806200031f6000396000f3fe608060405234801561001057600080fd5b50600436106100935760003560e01c806370a082311161006657806370a082311461013457806395d89b4114610164578063a9059cbb14610182578063dd62ed3e146101b2578063f851a440146101e257610093565b806306fdde0314610098578063095ea7b3146100b657806318160ddd146100e657806323b872dd14610104575b600080fd5b6100a0610200565b6040516100ad919061091f565b60405180910390f35b6100d060048036038101906100cb91906109da565b61028e565b6040516100dd9190610a35565b60405180910390f35b6100ee610380565b6040516100fb9190610a5f565b60405180910390f35b61011e60048036038101906101199190610a7a565b610386565b60405161012b9190610a35565b60405180910390f35b61014e60048036038101906101499190610acd565b6105f6565b60405161015b9190610a5f565b60405180910390f35b61016c61060e565b604051610179919061091f565b60405180910390f35b61019c600480360381019061019791906109da565b61069c565b6040516101a99190610a35565b60405180910390f35b6101cc60048036038101906101c79190610afa565b61083b565b6040516101d99190610a5f565b60405180910390f35b6101ea610860565b6040516101f79190610b49565b60405180910390f35b6000805461020d90610b93565b80601f016020809104026020016040519081016040528092919081815260200182805461023990610b93565b80156102865780601f1061025b57610100808354040283529160200191610286565b820191906000526020600020905b81548152906001019060200180831161026957829003601f168201915b505050505081565b600081600560003373ffffffffffffffffffffffffffffffffffffffff1673ffffffffffffffffffffffffffffffffffffffff16815260200190815260200160002060008573ffffffffffffffffffffffffffffffffffffffff1673ffffffffffffffffffffffffffffffffffffffff168152602001908152602001600020819055508273ffffffffffffffffffffffffffffffffffffffff163373ffffffffffffffffffffffffffffffffffffffff167f8c5be1e5ebec7d5bd14f71427d1e84f3dd0314c0f7b2291e5b200ac8c7c3b9258460405161036e9190610a5f565b60405180910390a36001905092915050565b60025481565b600081600560008673ffffffffffffffffffffffffffffffffffffffff1673ffffffffffffffffffffffffffffffffffffffff16815260200190815260200160002060003373ffffffffffffffffffffffffffffffffffffffff1673ffffffffffffffffffffffffffffffffffffffff168152602001908152602001600020541015610447576040517f08c379a000000000000000000000000000000000000000000000000000000000815260040161043e90610c11565b60405180910390fd5b81600560008673ffffffffffffffffffffffffffffffffffffffff1673ffffffffffffffffffffffffffffffffffffffff16815260200190815260200160002060003373ffffffffffffffffffffffffffffffffffffffff1673ffffffffffffffffffffffffffffffffffffffff16815260200190815260200160002060008282546104d39190610c60565b9250508190555081600460008673ffffffffffffffffffffffffffffffffffffffff1673ffffffffffffffffffffffffffffffffffffffff16815260200190815260200160002060008282546105299190610c60565b9250508190555081600460008573ffffffffffffffffffffffffffffffffffffffff1673ffffffffffffffffffffffffffffffffffffffff168152602001908152602001600020600082825461057f9190610c94565b925050819055508273ffffffffffffffffffffffffffffffffffffffff168473ffffffffffffffffffffffffffffffffffffffff167fddf252ad1be2c89b69c2b068fc378daa952ba7f163c4a11628f55a4df523b3ef846040516105e39190610a5f565b60405180910390a3600190509392505050565b60046020528060005260406000206000915090505481565b6001805461061b90610b93565b80601f016020809104026020016040519081016040528092919081815260200182805461064790610b93565b80156106945780601f1061066957610100808354040283529160200191610694565b820191906000526020600020905b81548152906001019060200180831161067757829003601f168201915b505050505081565b600081600460003373ffffffffffffffffffffffffffffffffffffffff1673ffffffffffffffffffffffffffffffffffffffff168152602001908152602001600020541015610720576040517f08c379a000000000000000000000000000000000000000000000000000000000815260040161071790610d36565b60405180910390fd5b81600460003373ffffffffffffffffffffffffffffffffffffffff1673ffffffffffffffffffffffffffffffffffffffff168152602001908152602001600020600082825461076f9190610c60565b9250508190555081600460008573ffffffffffffffffffffffffffffffffffffffff1673ffffffffffffffffffffffffffffffffffffffff16815260200190815260200160002060008282546107c59190610c94565b925050819055508273ffffffffffffffffffffffffffffffffffffffff163373ffffffffffffffffffffffffffffffffffffffff167fddf252ad1be2c89b69c2b068fc378daa952ba7f163c4a11628f55a4df523b3ef846040516108299190610a5f565b60405180910390a36001905092915050565b6005602052816000526040600020602052806000526040600020600091509150505481565b600360009054906101000a900473ffffffffffffffffffffffffffffffffffffffff1681565b600081519050919050565b600082825260208201905092915050565b60005b838110156108c05780820151818401526020810190506108a5565b838111156108cf576000848401525b50505050565b6000601f19601f8301169050919050565b60006108f182610886565b6108fb8185610891565b935061090b8185602086016108a2565b610914816108d5565b840191505092915050565b6000602082019050818103600083015261093981846108e6565b905092915050565b600080fd5b600073ffffffffffffffffffffffffffffffffffffffff82169050919050565b600061097182610946565b9050919050565b61098181610966565b811461098c57600080fd5b50565b60008135905061099e81610978565b92915050565b6000819050919050565b6109b7816109a4565b81146109c257600080fd5b50565b6000813590506109d4816109ae565b92915050565b600080604083850312156109f1576109f0610941565b5b60006109ff8582860161098f565b9250506020610a10858286016109c5565b9150509250929050565b60008115159050919050565b610a2f81610a1a565b82525050565b6000602082019050610a4a6000830184610a26565b92915050565b610a59816109a4565b82525050565b6000602082019050610a746000830184610a50565b92915050565b600080600060608486031215610a9357610a92610941565b5b6000610aa18682870161098f565b9350506020610ab28682870161098f565b9250506040610ac3868287016109c5565b9150509250925092565b600060208284031215610ae357610ae2610941565b5b6000610af18482850161098f565b91505092915050565b60008060408385031215610b1157610b10610941565b5b6000610b1f8582860161098f565b9250506020610b308582860161098f565b9150509250929050565b610b4381610966565b82525050565b6000602082019050610b5e6000830184610b3a565b92915050565b7f4e487b7100000000000000000000000000000000000000000000000000000000600052602260045260246000fd5b60006002820490506001821680610bab57607f821691505b60208210811415610bbf57610bbe610b64565b5b50919050565b7f416c6c6f77656420746f6b656e2061726520696e737566666963656e74000000600082015250565b6000610bfb601d83610891565b9150610c0682610bc5565b602082019050919050565b60006020820190508181036000830152610c2a81610bee565b9050919050565b7f4e487b7100000000000000000000000000000000000000000000000000000000600052601160045260246000fd5b6000610c6b826109a4565b9150610c76836109a4565b925082821015610c8957610c88610c31565b5b828203905092915050565b6000610c9f826109a4565b9150610caa836109a4565b9250827fffffffffffffffffffffffffffffffffffffffffffffffffffffffffffffffff03821115610cdf57610cde610c31565b5b828201905092915050565b7f496e73756666696365696e7420746f6b656e7300000000000000000000000000600082015250565b6000610d20601383610891565b9150610d2b82610cea565b602082019050919050565b60006020820190508181036000830152610d4f81610d13565b905091905056fea2646970667358221220f5f54aa31615e57b8cc44ebea76abf534fa5e9c8240a88983ea394feef491c7a64736f6c634300080a0033",
  "immutableReferences": {},
  "source": "pragma solidity <0.9.0;\r\n\r\ncontract UnoToken{\r\n\r\n    //******Variables\r\n    string public name= \"UnoToken\";\r\n    string public symbol = \"UNO\";\r\n    uint256 public totalSupply;\r\n    address public admin;\r\n\r\n    //*********Mappings\r\n    mapping(address => uint256) public balanceOf;\r\n    mapping(address => mapping(address =>uint256)) public allowance;\r\n\r\n    //*********Events\r\n    event Transfer(address indexed _from, address indexed _to, uint256 _value);\r\n    event Approval(address indexed _owner, address indexed _spender, uint256 _value);\r\n\r\n\r\n\r\n    // *********Functions*******\r\n\r\n    constructor(uint256 _supply){\r\n        admin=msg.sender;\r\n        balanceOf[admin] = _supply;\r\n        totalSupply = _supply;\r\n    }\r\n\r\n\r\n    function transfer(address _to, uint256 _value) public returns(bool success){\r\n        require(balanceOf[msg.sender]>= _value, \"Insufficeint tokens\");\r\n        balanceOf[msg.sender]-= _value;\r\n        balanceOf[_to] += _value;\r\n        emit Transfer(msg.sender, _to, _value);\r\n        return true;\r\n    }\r\n\r\n    function transferFrom(address _from, address _to, uint256 _value) public returns (bool success){\r\n        require(allowance[_from][msg.sender]>=_value,\"Allowed token are insufficent\");\r\n        allowance[_from][msg.sender]-=_value;\r\n        balanceOf[_from]-= _value;\r\n        balanceOf[_to] += _value;\r\n        emit Transfer(_from, _to, _value);\r\n        return true;\r\n    }\r\n\r\n    function approve(address _spender, uint256 _value) public returns (bool success){\r\n        allowance[msg.sender][_spender]= _value;\r\n        emit Approval(msg.sender,_spender,_value);\r\n        return true;\r\n    }\r\n\r\n    \r\n\r\n\r\n\r\n}",
  "sourcePath": "E:\\Projects\\ERC-20 Tokens\\UnoTokenSale\\UnoToken\\contracts\\UnoToken.sol",
  "compiler": {
    "name": "solc",
    "version": "0.8.10+commit.fc410830.Emscripten.clang"
  },
  "schemaVersion": "3.4.3",
  "updatedAt": "2021-12-10T09:58:25.263Z",
  "devdoc": {
    "kind": "dev",
    "methods": {},
    "version": 1
  },
  "userdoc": {
    "kind": "user",
    "methods": {},
    "version": 1
  }
}