{
  "contractName": "SmartVotingSystem",
  "abi": [
    {
      "inputs": [],
      "stateMutability": "nonpayable",
      "type": "constructor"
    },
    {
      "inputs": [
        {
          "internalType": "string",
          "name": "_candName",
          "type": "string"
        },
        {
          "internalType": "string",
          "name": "_candSymbol",
          "type": "string"
        },
        {
          "internalType": "uint256",
          "name": "_candAge",
          "type": "uint256"
        }
      ],
      "name": "addCandidate",
      "outputs": [
        {
          "internalType": "uint256",
          "name": "",
          "type": "uint256"
        },
        {
          "internalType": "string",
          "name": "",
          "type": "string"
        },
        {
          "internalType": "uint256",
          "name": "",
          "type": "uint256"
        },
        {
          "internalType": "string",
          "name": "",
          "type": "string"
        }
      ],
      "stateMutability": "payable",
      "type": "function",
      "payable": true
    },
    {
      "inputs": [
        {
          "internalType": "string",
          "name": "_candSymbol",
          "type": "string"
        }
      ],
      "name": "showCandidate",
      "outputs": [
        {
          "internalType": "uint256",
          "name": "",
          "type": "uint256"
        },
        {
          "internalType": "string",
          "name": "",
          "type": "string"
        },
        {
          "internalType": "uint256",
          "name": "",
          "type": "uint256"
        },
        {
          "internalType": "string",
          "name": "",
          "type": "string"
        }
      ],
      "stateMutability": "nonpayable",
      "type": "function"
    },
    {
      "inputs": [
        {
          "internalType": "string",
          "name": "_symbol",
          "type": "string"
        }
      ],
      "name": "vote",
      "outputs": [],
      "stateMutability": "nonpayable",
      "type": "function"
    },
    {
      "inputs": [],
      "name": "endVoting",
      "outputs": [],
      "stateMutability": "payable",
      "type": "function",
      "payable": true
    },
    {
      "inputs": [],
      "name": "showResult",
      "outputs": [
        {
          "internalType": "string",
          "name": "",
          "type": "string"
        },
        {
          "internalType": "uint256",
          "name": "",
          "type": "uint256"
        },
        {
          "internalType": "uint256",
          "name": "",
          "type": "uint256"
        },
        {
          "internalType": "string",
          "name": "",
          "type": "string"
        },
        {
          "internalType": "uint256",
          "name": "",
          "type": "uint256"
        }
      ],
      "stateMutability": "view",
      "type": "function",
      "constant": true
    }
  ],
  "bytecode": "0x608060405234801561001057600080fd5b5033600260006101000a81548173ffffffffffffffffffffffffffffffffffffffff021916908373ffffffffffffffffffffffffffffffffffffffff1602179055506001600260146101000a81548160ff02191690831515021790555061139e8061007c6000396000f3fe60806040526004361061004a5760003560e01c806333ee31311461004f5780633ca09fdf1461007e57806343731457146100b1578063c3403ddf146100f1578063fc36e15b146100fb575b600080fd5b34801561005b57600080fd5b50610064610124565b604051610075959493929190610c81565b60405180910390f35b61009860048036038101906100939190610e57565b6103b2565b6040516100a89493929190610ee2565b60405180910390f35b3480156100bd57600080fd5b506100d860048036038101906100d39190610f35565b6105dc565b6040516100e89493929190610ee2565b60405180910390f35b6100f9610798565b005b34801561010757600080fd5b50610122600480360381019061011d9190610f35565b6108ae565b005b606060008060606000600260009054906101000a900473ffffffffffffffffffffffffffffffffffffffff1673ffffffffffffffffffffffffffffffffffffffff163373ffffffffffffffffffffffffffffffffffffffff16146101bd576040517f08c379a00000000000000000000000000000000000000000000000000000000081526004016101b490610fca565b60405180910390fd5b60008080600190505b600054811161021757600660008281526020019081526020016000205483101561020457600660008281526020019081526020016000205492508091505b808061020f90611019565b9150506101c6565b5060006004600083815260200190815260200160002060405180608001604052908160008201805461024890611091565b80601f016020809104026020016040519081016040528092919081815260200182805461027490611091565b80156102c15780601f10610296576101008083540402835291602001916102c1565b820191906000526020600020905b8154815290600101906020018083116102a457829003601f168201915b5050505050815260200160018201548152602001600282015481526020016003820180546102ee90611091565b80601f016020809104026020016040519081016040528092919081815260200182805461031a90611091565b80156103675780601f1061033c57610100808354040283529160200191610367565b820191906000526020600020905b81548152906001019060200180831161034a57829003601f168201915b50505050508152505090508060000151816020015182604001518360600151600660008660200151815260200190815260200160002054975097509750975097505050509091929394565b6000606060006060662386f26fc100003414610403576040517f08c379a00000000000000000000000000000000000000000000000000000000081526004016103fa9061110f565b60405180910390fd5b603c851080156104135750601e85115b610452576040517f08c379a0000000000000000000000000000000000000000000000000000000008152600401610449906111a1565b60405180910390fd5b600160008082825461046491906111c1565b925050819055506040518060800160405280888152602001600054815260200186815260200187815250600760008201518160000190805190602001906104ac929190610a9f565b50602082015181600101556040820151816002015560608201518160030190805190602001906104dd929190610a9f565b5090505060076003876040516104f39190611253565b9081526020016040518091039020600082018160000190805461051590611091565b610520929190610b25565b506001820154816001015560028201548160020155600382018160030190805461054990611091565b610554929190610b25565b5090505060076004600080548152602001908152602001600020600082018160000190805461058290611091565b61058d929190610b25565b50600182015481600101556002820154816002015560038201816003019080546105b690611091565b6105c1929190610b25565b50905050600054878688935093509350935093509350935093565b60006060600060606003856040516105f49190611253565b90815260200160405180910390206007600082018160000190805461061890611091565b610623929190610b25565b506001820154816001015560028201548160020155600382018160030190805461064c90611091565b610657929190610b25565b509050506007600101546007600001600760020154600760030182805461067d90611091565b80601f01602080910402602001604051908101604052809291908181526020018280546106a990611091565b80156106f65780601f106106cb576101008083540402835291602001916106f6565b820191906000526020600020905b8154815290600101906020018083116106d957829003601f168201915b5050505050925080805461070990611091565b80601f016020809104026020016040519081016040528092919081815260200182805461073590611091565b80156107825780601f1061075757610100808354040283529160200191610782565b820191906000526020600020905b81548152906001019060200180831161076557829003601f168201915b5050505050905093509350935093509193509193565b600260009054906101000a900473ffffffffffffffffffffffffffffffffffffffff1673ffffffffffffffffffffffffffffffffffffffff163373ffffffffffffffffffffffffffffffffffffffff1614610828576040517f08c379a000000000000000000000000000000000000000000000000000000000815260040161081f90610fca565b60405180910390fd5b6000600260146101000a81548160ff021916908315150217905550600260009054906101000a900473ffffffffffffffffffffffffffffffffffffffff1673ffffffffffffffffffffffffffffffffffffffff166108fc479081150290604051600060405180830381858888f193505050501580156108ab573d6000803e3d6000fd5b50565b60001515600560003373ffffffffffffffffffffffffffffffffffffffff1673ffffffffffffffffffffffffffffffffffffffff16815260200190815260200160002060009054906101000a900460ff16151514610941576040517f08c379a0000000000000000000000000000000000000000000000000000000008152600401610938906112dc565b60405180910390fd5b60011515600260149054906101000a900460ff16151514610997576040517f08c379a000000000000000000000000000000000000000000000000000000000815260040161098e90611348565b60405180910390fd5b6003816040516109a79190611253565b9081526020016040518091039020600760008201816000019080546109cb90611091565b6109d6929190610b25565b50600182015481600101556002820154816002015560038201816003019080546109ff90611091565b610a0a929190610b25565b50905050600060076001015490506001600660008381526020019081526020016000206000828254610a3c91906111c1565b925050819055506001600560003373ffffffffffffffffffffffffffffffffffffffff1673ffffffffffffffffffffffffffffffffffffffff16815260200190815260200160002060006101000a81548160ff0219169083151502179055505050565b828054610aab90611091565b90600052602060002090601f016020900481019282610acd5760008555610b14565b82601f10610ae657805160ff1916838001178555610b14565b82800160010185558215610b14579182015b82811115610b13578251825591602001919060010190610af8565b5b509050610b219190610bb2565b5090565b828054610b3190611091565b90600052602060002090601f016020900481019282610b535760008555610ba1565b82601f10610b645780548555610ba1565b82800160010185558215610ba157600052602060002091601f016020900482015b82811115610ba0578254825591600101919060010190610b85565b5b509050610bae9190610bb2565b5090565b5b80821115610bcb576000816000905550600101610bb3565b5090565b600081519050919050565b600082825260208201905092915050565b60005b83811015610c09578082015181840152602081019050610bee565b83811115610c18576000848401525b50505050565b6000601f19601f8301169050919050565b6000610c3a82610bcf565b610c448185610bda565b9350610c54818560208601610beb565b610c5d81610c1e565b840191505092915050565b6000819050919050565b610c7b81610c68565b82525050565b600060a0820190508181036000830152610c9b8188610c2f565b9050610caa6020830187610c72565b610cb76040830186610c72565b8181036060830152610cc98185610c2f565b9050610cd86080830184610c72565b9695505050505050565b6000604051905090565b600080fd5b600080fd5b600080fd5b600080fd5b7f4e487b7100000000000000000000000000000000000000000000000000000000600052604160045260246000fd5b610d3882610c1e565b810181811067ffffffffffffffff82111715610d5757610d56610d00565b5b80604052505050565b6000610d6a610ce2565b9050610d768282610d2f565b919050565b600067ffffffffffffffff821115610d9657610d95610d00565b5b610d9f82610c1e565b9050602081019050919050565b82818337600083830152505050565b6000610dce610dc984610d7b565b610d60565b905082815260208101848484011115610dea57610de9610cfb565b5b610df5848285610dac565b509392505050565b600082601f830112610e1257610e11610cf6565b5b8135610e22848260208601610dbb565b91505092915050565b610e3481610c68565b8114610e3f57600080fd5b50565b600081359050610e5181610e2b565b92915050565b600080600060608486031215610e7057610e6f610cec565b5b600084013567ffffffffffffffff811115610e8e57610e8d610cf1565b5b610e9a86828701610dfd565b935050602084013567ffffffffffffffff811115610ebb57610eba610cf1565b5b610ec786828701610dfd565b9250506040610ed886828701610e42565b9150509250925092565b6000608082019050610ef76000830187610c72565b8181036020830152610f098186610c2f565b9050610f186040830185610c72565b8181036060830152610f2a8184610c2f565b905095945050505050565b600060208284031215610f4b57610f4a610cec565b5b600082013567ffffffffffffffff811115610f6957610f68610cf1565b5b610f7584828501610dfd565b91505092915050565b7f4f6e6c79206f776e65722063616e206164642063616e64696461746500000000600082015250565b6000610fb4601c83610bda565b9150610fbf82610f7e565b602082019050919050565b60006020820190508181036000830152610fe381610fa7565b9050919050565b7f4e487b7100000000000000000000000000000000000000000000000000000000600052601160045260246000fd5b600061102482610c68565b91507fffffffffffffffffffffffffffffffffffffffffffffffffffffffffffffffff82141561105757611056610fea565b5b600182019050919050565b7f4e487b7100000000000000000000000000000000000000000000000000000000600052602260045260246000fd5b600060028204905060018216806110a957607f821691505b602082108114156110bd576110bc611062565b5b50919050565b7f4e6f6d696e6174696f6e2066656520697320302e303120657468657200000000600082015250565b60006110f9601c83610bda565b9150611104826110c3565b602082019050919050565b60006020820190508181036000830152611128816110ec565b9050919050565b7f43616e6469646174652073686f756c64206265206265747765656e203330206160008201527f6e6420363020796561727320746f206e6f6d696e617465000000000000000000602082015250565b600061118b603783610bda565b91506111968261112f565b604082019050919050565b600060208201905081810360008301526111ba8161117e565b9050919050565b60006111cc82610c68565b91506111d783610c68565b9250827fffffffffffffffffffffffffffffffffffffffffffffffffffffffffffffffff0382111561120c5761120b610fea565b5b828201905092915050565b600081905092915050565b600061122d82610bcf565b6112378185611217565b9350611247818560208601610beb565b80840191505092915050565b600061125f8284611222565b915081905092915050565b7f596f757220766f74652068617320616c7265616479206265656e207265636f7260008201527f6465640000000000000000000000000000000000000000000000000000000000602082015250565b60006112c6602383610bda565b91506112d18261126a565b604082019050919050565b600060208201905081810360008301526112f5816112b9565b9050919050565b7f566f74696e6720697320656e6465640000000000000000000000000000000000600082015250565b6000611332600f83610bda565b915061133d826112fc565b602082019050919050565b6000602082019050818103600083015261136181611325565b905091905056fea26469706673582212204e5ab7a85c5b23a2aebf20cde1a51d2b7cf3a7327f585cbc196965ef436a506564736f6c634300080a0033",
  "immutableReferences": {},
  "source": "pragma solidity <0.9.0;\r\n\r\n\r\ncontract SmartVotingSystem{\r\n\r\n    uint256 noOfCandidates; // records no of candidates nominated\r\n    uint256 totalVotes; // records total no of votes\r\n    address admin;\r\n    bool voting;  // boolean variable for verifying if voting has ended or not\r\n\r\n    constructor(){\r\n        admin = msg.sender;\r\n        voting = true;\r\n\r\n    }\r\n\r\n    // struct to store all the details of a candidate\r\n    struct Candidate{\r\n\r\n        string name;\r\n        uint256 number;\r\n        uint256 age;\r\n        string symbol;\r\n\r\n    }\r\n\r\n    // modifier for allowing only owner callable functions\r\n    modifier onlyOwner(){\r\n        require(msg.sender == admin,\"Only owner can add candidate\");\r\n        _;\r\n    }\r\n\r\n    // *********Mappings*********\r\n    mapping(string => Candidate) internal candDetailsBySymbol;  // mapping for fetching candidate details by symbol\r\n    mapping(uint256 => Candidate) internal candDetailsByNumber; // mapping for fetching candidate details by candidate number\r\n    mapping(address => bool) internal verifyVote;               // mapping for verifying if the particular address has already voted or not\r\n    mapping(uint256 => uint256) internal score;                 // mapping for storing no of votes for each candidate\r\n    Candidate cand;\r\n\r\n    //************Functions*****************\r\n\r\n    /* function to add candidate and all his details to the database  Any candidate can nominate himself if they meet the age criteria.\r\n        It takes below as the input parameters and returns all details along with candidate number.\r\n            candidate Name\r\n            candidate Symbol\r\n            candidate Age\r\n       */\r\n\r\n    function addCandidate(string memory _candName, string memory _candSymbol, uint256 _candAge) external payable\r\n    returns(uint256,string memory,uint256,string memory){\r\n        require(msg.value==0.01 ether,\"Nomination fee is 0.01 ether\");\r\n        require(_candAge<60 && _candAge>30,\"Candidate should be between 30 and 60 years to nominate\");\r\n        noOfCandidates += 1;\r\n        cand = Candidate(_candName,noOfCandidates,_candAge,_candSymbol);\r\n        candDetailsBySymbol[_candSymbol] = cand;\r\n        candDetailsByNumber[noOfCandidates] = cand;\r\n        return(noOfCandidates,_candName,_candAge,_candSymbol);\r\n\r\n    }\r\n\r\n\r\n    /* function to show all the details of a cadidate which takes below as input parameter\r\n        candidate Symbol\r\n    */\r\n\r\n    function showCandidate(string memory _candSymbol) public returns(uint256,string memory, uint256,string memory){\r\n        cand = candDetailsBySymbol[_candSymbol];\r\n        return(cand.number,cand.name,cand.age,cand.symbol);\r\n\r\n    }\r\n\r\n    /* function to vote which can be accessible by everyone to record their vote and it verifies if the person has already voted or not\r\n        and also verifies if the voting is still open. It takes below as input parameters.\r\n            candidate Symbol\r\n    */\r\n\r\n    function vote(string memory _symbol) external{\r\n        require(verifyVote[msg.sender]==false,\"Your vote has already been recorded\");\r\n        require(voting==true,\"Voting is ended\");\r\n        cand = candDetailsBySymbol[_symbol];\r\n        uint256 num = cand.number;\r\n        score[num] += 1;\r\n        verifyVote[msg.sender] = true;\r\n    }\r\n\r\n    /* function to end voting and can only be called by owner which sets the voting variable to false\r\n    */\r\n\r\n    function endVoting() external payable onlyOwner {\r\n        voting = false;\r\n        payable(admin).transfer(address(this).balance);\r\n\r\n\r\n    }\r\n\r\n    /* function to show the final result of the voting. It shows the winner by displaying all the details of the winner along with the\r\n        no of votes of that candidate.\r\n    */\r\n\r\n    function showResult() public view onlyOwner returns(string memory,uint256,uint256,string memory,uint256){\r\n        uint256 result = 0;\r\n        uint256 candNo;\r\n\t    for(uint256 i = 1; i<=noOfCandidates; i++)\r\n\t\t    if(result<score[i]){\r\n                result = score[i];\r\n                candNo = i;\r\n            }\r\n\t    Candidate memory winner = candDetailsByNumber[candNo];\r\n        return(winner.name,winner.number,winner.age,winner.symbol,score[winner.number]);\r\n   }\r\n\r\n}",
  "sourcePath": "E:\\Projects\\Smart_Voting_System\\contracts\\SmartVotingSystem.sol",
  "compiler": {
    "name": "solc",
    "version": "0.8.10+commit.fc410830.Emscripten.clang"
  },
  "schemaVersion": "3.4.3",
  "updatedAt": "2022-03-28T15:04:27.361Z",
  "networkType": "ethereum",
  "devdoc": {
    "kind": "dev",
    "methods": {},
    "version": 1
  },
  "userdoc": {
    "kind": "user",
    "methods": {},
    "version": 1
  }
}